{
  "_format": "hh-sol-artifact-1",
  "contractName": "CreateCampaign",
  "sourceName": "contracts/CreateCampaign.sol",
  "abi": [
    {
      "inputs": [],
      "stateMutability": "nonpayable",
      "type": "constructor"
    },
    {
      "inputs": [
        {
          "internalType": "uint256",
          "name": "",
          "type": "uint256"
        },
        {
          "internalType": "address",
          "name": "",
          "type": "address"
        }
      ],
      "name": "campaignContributors",
      "outputs": [
        {
          "internalType": "uint256",
          "name": "",
          "type": "uint256"
        }
      ],
      "stateMutability": "view",
      "type": "function"
    },
    {
      "inputs": [
        {
          "internalType": "uint256",
          "name": "",
          "type": "uint256"
        }
      ],
      "name": "campaignList",
      "outputs": [
        {
          "internalType": "uint256",
          "name": "minimumContribution",
          "type": "uint256"
        },
        {
          "internalType": "uint256",
          "name": "deadline",
          "type": "uint256"
        },
        {
          "internalType": "uint256",
          "name": "target",
          "type": "uint256"
        },
        {
          "internalType": "string",
          "name": "description",
          "type": "string"
        },
        {
          "internalType": "uint256",
          "name": "uniqueId",
          "type": "uint256"
        },
        {
          "internalType": "uint256",
          "name": "raisedAmount",
          "type": "uint256"
        },
        {
          "internalType": "bool",
          "name": "isFunded",
          "type": "bool"
        }
      ],
      "stateMutability": "view",
      "type": "function"
    },
    {
      "inputs": [
        {
          "internalType": "uint256",
          "name": "val",
          "type": "uint256"
        }
      ],
      "name": "contribute",
      "outputs": [],
      "stateMutability": "payable",
      "type": "function"
    },
    {
      "inputs": [],
      "name": "count",
      "outputs": [
        {
          "internalType": "uint256",
          "name": "",
          "type": "uint256"
        }
      ],
      "stateMutability": "view",
      "type": "function"
    },
    {
      "inputs": [],
      "name": "feePercentage",
      "outputs": [
        {
          "internalType": "uint256",
          "name": "",
          "type": "uint256"
        }
      ],
      "stateMutability": "view",
      "type": "function"
    },
    {
      "inputs": [
        {
          "internalType": "uint256",
          "name": "val",
          "type": "uint256"
        }
      ],
      "name": "getCampaign",
      "outputs": [
        {
          "components": [
            {
              "internalType": "uint256",
              "name": "minimumContribution",
              "type": "uint256"
            },
            {
              "internalType": "uint256",
              "name": "deadline",
              "type": "uint256"
            },
            {
              "internalType": "uint256",
              "name": "target",
              "type": "uint256"
            },
            {
              "internalType": "string",
              "name": "description",
              "type": "string"
            },
            {
              "internalType": "uint256",
              "name": "uniqueId",
              "type": "uint256"
            },
            {
              "internalType": "uint256",
              "name": "raisedAmount",
              "type": "uint256"
            },
            {
              "internalType": "bool",
              "name": "isFunded",
              "type": "bool"
            }
          ],
          "internalType": "struct MyLibrary.Campaign",
          "name": "",
          "type": "tuple"
        }
      ],
      "stateMutability": "view",
      "type": "function"
    },
    {
      "inputs": [],
      "name": "getContractAddress",
      "outputs": [
        {
          "internalType": "address",
          "name": "",
          "type": "address"
        }
      ],
      "stateMutability": "view",
      "type": "function"
    },
    {
      "inputs": [],
      "name": "getContractBalance",
      "outputs": [
        {
          "internalType": "uint256",
          "name": "",
          "type": "uint256"
        }
      ],
      "stateMutability": "view",
      "type": "function"
    },
    {
      "inputs": [
        {
          "internalType": "uint256",
          "name": "val",
          "type": "uint256"
        }
      ],
      "name": "getContributorInfo",
      "outputs": [
        {
          "internalType": "uint256",
          "name": "",
          "type": "uint256"
        }
      ],
      "stateMutability": "view",
      "type": "function"
    },
    {
      "inputs": [
        {
          "internalType": "uint256",
          "name": "",
          "type": "uint256"
        }
      ],
      "name": "managers",
      "outputs": [
        {
          "internalType": "address payable",
          "name": "ownerAdd",
          "type": "address"
        },
        {
          "internalType": "bool",
          "name": "isClosed",
          "type": "bool"
        },
        {
          "internalType": "uint256",
          "name": "timeStamp",
          "type": "uint256"
        }
      ],
      "stateMutability": "view",
      "type": "function"
    },
    {
      "inputs": [
        {
          "internalType": "uint256",
          "name": "_minimumnContribution",
          "type": "uint256"
        },
        {
          "internalType": "uint256",
          "name": "_target",
          "type": "uint256"
        },
        {
          "internalType": "uint256",
          "name": "_deadline",
          "type": "uint256"
        },
        {
          "internalType": "string",
          "name": "_desc",
          "type": "string"
        }
      ],
      "name": "setCampaign",
      "outputs": [],
      "stateMutability": "nonpayable",
      "type": "function"
    },
    {
      "inputs": [
        {
          "internalType": "uint256",
          "name": "val",
          "type": "uint256"
        }
      ],
      "name": "withdrawalRequest",
      "outputs": [],
      "stateMutability": "nonpayable",
      "type": "function"
    }
  ],
  "bytecode": "0x608060405234801561001057600080fd5b506000600381905550600360048190555060016005819055506118f7806100386000396000f3fe6080604052600436106100a75760003560e01c8063674811ca11610064578063674811ca146101ea5780636f9fb98a146102275780638187e27b14610252578063a001ecdd1461028f578063b756063c146102ba578063c1cbbca7146102e3576100a7565b806306661abd146100ac57806332a2c5d0146100d75780633d39c260146101025780634912c658146101415780635209cb98146101845780635598f8cc146101ad575b600080fd5b3480156100b857600080fd5b506100c16102ff565b6040516100ce9190610c8e565b60405180910390f35b3480156100e357600080fd5b506100ec610305565b6040516100f99190610cea565b60405180910390f35b34801561010e57600080fd5b5061012960048036038101906101249190610d45565b61030d565b60405161013893929190610dae565b60405180910390f35b34801561014d57600080fd5b5061016860048036038101906101639190610d45565b610364565b60405161017b9796959493929190610e75565b60405180910390f35b34801561019057600080fd5b506101ab60048036038101906101a69190610d45565b61044b565b005b3480156101b957600080fd5b506101d460048036038101906101cf9190610d45565b610635565b6040516101e19190610fef565b60405180910390f35b3480156101f657600080fd5b50610211600480360381019061020c9190610d45565b610750565b60405161021e9190610c8e565b60405180910390f35b34801561023357600080fd5b5061023c6107aa565b6040516102499190610c8e565b60405180910390f35b34801561025e57600080fd5b506102796004803603810190610274919061103d565b6107b2565b6040516102869190610c8e565b60405180910390f35b34801561029b57600080fd5b506102a46107d7565b6040516102b19190610c8e565b60405180910390f35b3480156102c657600080fd5b506102e160048036038101906102dc91906111b2565b6107dd565b005b6102fd60048036038101906102f89190610d45565b6109f2565b005b60035481565b600030905090565b60016020528060005260406000206000915090508060000160009054906101000a900473ffffffffffffffffffffffffffffffffffffffff16908060000160149054906101000a900460ff16908060010154905083565b6000818154811061037457600080fd5b90600052602060002090600702016000915090508060000154908060010154908060020154908060030180546103a990611264565b80601f01602080910402602001604051908101604052809291908181526020018280546103d590611264565b80156104225780601f106103f757610100808354040283529160200191610422565b820191906000526020600020905b81548152906001019060200180831161040557829003601f168201915b5050505050908060040154908060050154908060060160009054906101000a900460ff16905087565b600061045682610635565b90508060c001511561049d576040517f08c379a0000000000000000000000000000000000000000000000000000000008152600401610494906112e1565b60405180910390fd5b600160008260800151815260200190815260200160002060000160009054906101000a900473ffffffffffffffffffffffffffffffffffffffff1673ffffffffffffffffffffffffffffffffffffffff163373ffffffffffffffffffffffffffffffffffffffff1614610545576040517f08c379a000000000000000000000000000000000000000000000000000000000815260040161053c90611373565b60405180910390fd5b8060a0015181604001511115610590576040517f08c379a0000000000000000000000000000000000000000000000000000000008152600401610587906113df565b60405180910390fd5b600160008260800151815260200190815260200160002060000160009054906101000a900473ffffffffffffffffffffffffffffffffffffffff1673ffffffffffffffffffffffffffffffffffffffff166108fc8260a001519081150290604051600060405180830381858888f19350505050158015610614573d6000803e3d6000fd5b5060008160a001818152505060018160c00190151590811515815250505050565b61063d610bfd565b60008281548110610651576106506113ff565b5b90600052602060002090600702016040518060e001604052908160008201548152602001600182015481526020016002820154815260200160038201805461069890611264565b80601f01602080910402602001604051908101604052809291908181526020018280546106c490611264565b80156107115780601f106106e657610100808354040283529160200191610711565b820191906000526020600020905b8154815290600101906020018083116106f457829003601f168201915b5050505050815260200160048201548152602001600582015481526020016006820160009054906101000a900460ff1615151515815250509050919050565b60006002600083815260200190815260200160002060003373ffffffffffffffffffffffffffffffffffffffff1673ffffffffffffffffffffffffffffffffffffffff168152602001908152602001600020549050919050565b600047905090565b6002602052816000526040600020602052806000526040600020600091509150505481565b60045481565b6107e5610bfd565b6107ed610c3c565b33816000019073ffffffffffffffffffffffffffffffffffffffff16908173ffffffffffffffffffffffffffffffffffffffff168152505060008160200190151590811515815250504281604001818152505085826000018181525050848260400181815250504284610860919061145d565b82602001818152505082826060018190525060055482608001818152505060008260a001818152505060008260c00190151590811515815250508060016000600554815260200190815260200160002060008201518160000160006101000a81548173ffffffffffffffffffffffffffffffffffffffff021916908373ffffffffffffffffffffffffffffffffffffffff16021790555060208201518160000160146101000a81548160ff0219169083151502179055506040820151816001015590505060008290806001815401808255809150506001900390600052602060002090600702016000909190919091506000820151816000015560208201518160010155604082015181600201556060820151816003019081610983919061163d565b506080820151816004015560a0820151816005015560c08201518160060160006101000a81548160ff0219169083151502179055505050600360008154809291906109cd9061170f565b9190505550600560008154809291906109e59061170f565b9190505550505050505050565b60008181548110610a0657610a056113ff565b5b906000526020600020906007020160060160009054906101000a900460ff1615610a65576040517f08c379a0000000000000000000000000000000000000000000000000000000008152600401610a5c906117a3565b60405180910390fd5b60008181548110610a7957610a786113ff565b5b9060005260206000209060070201600101544210610acc576040517f08c379a0000000000000000000000000000000000000000000000000000000008152600401610ac39061180f565b60405180910390fd5b60008181548110610ae057610adf6113ff565b5b9060005260206000209060070201600001543411610b33576040517f08c379a0000000000000000000000000000000000000000000000000000000008152600401610b2a906118a1565b60405180910390fd5b3460026000808481548110610b4b57610b4a6113ff565b5b906000526020600020906007020160040154815260200190815260200160002060003373ffffffffffffffffffffffffffffffffffffffff1673ffffffffffffffffffffffffffffffffffffffff1681526020019081526020016000206000828254610bb7919061145d565b925050819055503460008281548110610bd357610bd26113ff565b5b90600052602060002090600702016005016000828254610bf3919061145d565b9250508190555050565b6040518060e001604052806000815260200160008152602001600081526020016060815260200160008152602001600081526020016000151581525090565b6040518060600160405280600073ffffffffffffffffffffffffffffffffffffffff168152602001600015158152602001600081525090565b6000819050919050565b610c8881610c75565b82525050565b6000602082019050610ca36000830184610c7f565b92915050565b600073ffffffffffffffffffffffffffffffffffffffff82169050919050565b6000610cd482610ca9565b9050919050565b610ce481610cc9565b82525050565b6000602082019050610cff6000830184610cdb565b92915050565b6000604051905090565b600080fd5b600080fd5b610d2281610c75565b8114610d2d57600080fd5b50565b600081359050610d3f81610d19565b92915050565b600060208284031215610d5b57610d5a610d0f565b5b6000610d6984828501610d30565b91505092915050565b6000610d7d82610ca9565b9050919050565b610d8d81610d72565b82525050565b60008115159050919050565b610da881610d93565b82525050565b6000606082019050610dc36000830186610d84565b610dd06020830185610d9f565b610ddd6040830184610c7f565b949350505050565b600081519050919050565b600082825260208201905092915050565b60005b83811015610e1f578082015181840152602081019050610e04565b60008484015250505050565b6000601f19601f8301169050919050565b6000610e4782610de5565b610e518185610df0565b9350610e61818560208601610e01565b610e6a81610e2b565b840191505092915050565b600060e082019050610e8a600083018a610c7f565b610e976020830189610c7f565b610ea46040830188610c7f565b8181036060830152610eb68187610e3c565b9050610ec56080830186610c7f565b610ed260a0830185610c7f565b610edf60c0830184610d9f565b98975050505050505050565b610ef481610c75565b82525050565b600082825260208201905092915050565b6000610f1682610de5565b610f208185610efa565b9350610f30818560208601610e01565b610f3981610e2b565b840191505092915050565b610f4d81610d93565b82525050565b600060e083016000830151610f6b6000860182610eeb565b506020830151610f7e6020860182610eeb565b506040830151610f916040860182610eeb565b5060608301518482036060860152610fa98282610f0b565b9150506080830151610fbe6080860182610eeb565b5060a0830151610fd160a0860182610eeb565b5060c0830151610fe460c0860182610f44565b508091505092915050565b600060208201905081810360008301526110098184610f53565b905092915050565b61101a81610cc9565b811461102557600080fd5b50565b60008135905061103781611011565b92915050565b6000806040838503121561105457611053610d0f565b5b600061106285828601610d30565b925050602061107385828601611028565b9150509250929050565b600080fd5b600080fd5b7f4e487b7100000000000000000000000000000000000000000000000000000000600052604160045260246000fd5b6110bf82610e2b565b810181811067ffffffffffffffff821117156110de576110dd611087565b5b80604052505050565b60006110f1610d05565b90506110fd82826110b6565b919050565b600067ffffffffffffffff82111561111d5761111c611087565b5b61112682610e2b565b9050602081019050919050565b82818337600083830152505050565b600061115561115084611102565b6110e7565b90508281526020810184848401111561117157611170611082565b5b61117c848285611133565b509392505050565b600082601f8301126111995761119861107d565b5b81356111a9848260208601611142565b91505092915050565b600080600080608085870312156111cc576111cb610d0f565b5b60006111da87828801610d30565b94505060206111eb87828801610d30565b93505060406111fc87828801610d30565b925050606085013567ffffffffffffffff81111561121d5761121c610d14565b5b61122987828801611184565b91505092959194509250565b7f4e487b7100000000000000000000000000000000000000000000000000000000600052602260045260246000fd5b6000600282049050600182168061127c57607f821691505b60208210810361128f5761128e611235565b5b50919050565b7f5769746864726177616c2063616e6e6f74206265206d61646500000000000000600082015250565b60006112cb601983610df0565b91506112d682611295565b602082019050919050565b600060208201905081810360008301526112fa816112be565b9050919050565b7f4f6e6c792043616d706169676e2043726561746f722063616e2077697468647260008201527f6177000000000000000000000000000000000000000000000000000000000000602082015250565b600061135d602283610df0565b915061136882611301565b604082019050919050565b6000602082019050818103600083015261138c81611350565b9050919050565b7f50726f6a656374206973206e6f742066756c6c792066756e6465640000000000600082015250565b60006113c9601b83610df0565b91506113d482611393565b602082019050919050565b600060208201905081810360008301526113f8816113bc565b9050919050565b7f4e487b7100000000000000000000000000000000000000000000000000000000600052603260045260246000fd5b7f4e487b7100000000000000000000000000000000000000000000000000000000600052601160045260246000fd5b600061146882610c75565b915061147383610c75565b925082820190508082111561148b5761148a61142e565b5b92915050565b60008190508160005260206000209050919050565b60006020601f8301049050919050565b600082821b905092915050565b6000600883026114f37fffffffffffffffffffffffffffffffffffffffffffffffffffffffffffffffff826114b6565b6114fd86836114b6565b95508019841693508086168417925050509392505050565b6000819050919050565b600061153a61153561153084610c75565b611515565b610c75565b9050919050565b6000819050919050565b6115548361151f565b61156861156082611541565b8484546114c3565b825550505050565b600090565b61157d611570565b61158881848461154b565b505050565b5b818110156115ac576115a1600082611575565b60018101905061158e565b5050565b601f8211156115f1576115c281611491565b6115cb846114a6565b810160208510156115da578190505b6115ee6115e6856114a6565b83018261158d565b50505b505050565b600082821c905092915050565b6000611614600019846008026115f6565b1980831691505092915050565b600061162d8383611603565b9150826002028217905092915050565b61164682610de5565b67ffffffffffffffff81111561165f5761165e611087565b5b6116698254611264565b6116748282856115b0565b600060209050601f8311600181146116a75760008415611695578287015190505b61169f8582611621565b865550611707565b601f1984166116b586611491565b60005b828110156116dd578489015182556001820191506020850194506020810190506116b8565b868310156116fa57848901516116f6601f891682611603565b8355505b6001600288020188555050505b505050505050565b600061171a82610c75565b91507fffffffffffffffffffffffffffffffffffffffffffffffffffffffffffffffff820361174c5761174b61142e565b5b600182019050919050565b7f43616d706169676e20616c72656164792066756e646564000000000000000000600082015250565b600061178d601783610df0565b915061179882611757565b602082019050919050565b600060208201905081810360008301526117bc81611780565b9050919050565b7f4265796f6e6420446561646c696e650000000000000000000000000000000000600082015250565b60006117f9600f83610df0565b9150611804826117c3565b602082019050919050565b60006020820190508181036000830152611828816117ec565b9050919050565b7f436f6e747269627574696f6e20616d6f756e74206d757374206265206772656160008201527f746572207468616e206d696e696d756d20616d6f756e74000000000000000000602082015250565b600061188b603783610df0565b91506118968261182f565b604082019050919050565b600060208201905081810360008301526118ba8161187e565b905091905056fea264697066735822122072ca266379355fbde918ffc8f653072e126c46315dd29b17165eb5e4db0a85f564736f6c63430008110033",
  "linkReferences": {},
  "deployedLinkReferences": {}
}